{
  "_format": "hh-sol-artifact-1",
  "contractName": "CricketScorecard",
  "sourceName": "contracts/CricketScorecard.sol",
  "abi": [
    {
      "inputs": [],
      "stateMutability": "nonpayable",
      "type": "constructor"
    },
    {
      "anonymous": false,
      "inputs": [
        {
          "indexed": false,
          "internalType": "string",
          "name": "name",
          "type": "string"
        },
        {
          "indexed": false,
          "internalType": "string",
          "name": "date",
          "type": "string"
        }
      ],
      "name": "MatchInfoUpdated",
      "type": "event"
    },
    {
      "anonymous": false,
      "inputs": [
        {
          "indexed": false,
          "internalType": "string",
          "name": "name",
          "type": "string"
        }
      ],
      "name": "PlayerAdded",
      "type": "event"
    },
    {
      "anonymous": false,
      "inputs": [
        {
          "indexed": false,
          "internalType": "string",
          "name": "name",
          "type": "string"
        },
        {
          "indexed": false,
          "internalType": "uint256",
          "name": "runs",
          "type": "uint256"
        },
        {
          "indexed": false,
          "internalType": "uint256",
          "name": "wickets",
          "type": "uint256"
        }
      ],
      "name": "ScoreUpdated",
      "type": "event"
    },
    {
      "anonymous": false,
      "inputs": [
        {
          "indexed": false,
          "internalType": "address",
          "name": "scorer",
          "type": "address"
        }
      ],
      "name": "ScorerAssigned",
      "type": "event"
    },
    {
      "anonymous": false,
      "inputs": [],
      "name": "ScoresReset",
      "type": "event"
    },
    {
      "inputs": [
        {
          "internalType": "string",
          "name": "_name",
          "type": "string"
        }
      ],
      "name": "addPlayer",
      "outputs": [],
      "stateMutability": "nonpayable",
      "type": "function"
    },
    {
      "inputs": [],
      "name": "getAllPlayers",
      "outputs": [
        {
          "components": [
            {
              "internalType": "string",
              "name": "name",
              "type": "string"
            },
            {
              "internalType": "uint256",
              "name": "runs",
              "type": "uint256"
            },
            {
              "internalType": "uint256",
              "name": "wickets",
              "type": "uint256"
            }
          ],
          "internalType": "struct CricketScorecard.Player[]",
          "name": "",
          "type": "tuple[]"
        }
      ],
      "stateMutability": "view",
      "type": "function"
    },
    {
      "inputs": [
        {
          "internalType": "string",
          "name": "_name",
          "type": "string"
        }
      ],
      "name": "getPlayer",
      "outputs": [
        {
          "components": [
            {
              "internalType": "string",
              "name": "name",
              "type": "string"
            },
            {
              "internalType": "uint256",
              "name": "runs",
              "type": "uint256"
            },
            {
              "internalType": "uint256",
              "name": "wickets",
              "type": "uint256"
            }
          ],
          "internalType": "struct CricketScorecard.Player",
          "name": "",
          "type": "tuple"
        }
      ],
      "stateMutability": "view",
      "type": "function"
    },
    {
      "inputs": [],
      "name": "getTotalScore",
      "outputs": [
        {
          "internalType": "uint256",
          "name": "total",
          "type": "uint256"
        }
      ],
      "stateMutability": "view",
      "type": "function"
    },
    {
      "inputs": [],
      "name": "matchDate",
      "outputs": [
        {
          "internalType": "string",
          "name": "",
          "type": "string"
        }
      ],
      "stateMutability": "view",
      "type": "function"
    },
    {
      "inputs": [],
      "name": "matchName",
      "outputs": [
        {
          "internalType": "string",
          "name": "",
          "type": "string"
        }
      ],
      "stateMutability": "view",
      "type": "function"
    },
    {
      "inputs": [
        {
          "internalType": "string",
          "name": "",
          "type": "string"
        }
      ],
      "name": "nameToIndex",
      "outputs": [
        {
          "internalType": "uint256",
          "name": "",
          "type": "uint256"
        }
      ],
      "stateMutability": "view",
      "type": "function"
    },
    {
      "inputs": [],
      "name": "owner",
      "outputs": [
        {
          "internalType": "address",
          "name": "",
          "type": "address"
        }
      ],
      "stateMutability": "view",
      "type": "function"
    },
    {
      "inputs": [
        {
          "internalType": "string",
          "name": "",
          "type": "string"
        }
      ],
      "name": "playerExists",
      "outputs": [
        {
          "internalType": "bool",
          "name": "",
          "type": "bool"
        }
      ],
      "stateMutability": "view",
      "type": "function"
    },
    {
      "inputs": [
        {
          "internalType": "uint256",
          "name": "",
          "type": "uint256"
        }
      ],
      "name": "players",
      "outputs": [
        {
          "internalType": "string",
          "name": "name",
          "type": "string"
        },
        {
          "internalType": "uint256",
          "name": "runs",
          "type": "uint256"
        },
        {
          "internalType": "uint256",
          "name": "wickets",
          "type": "uint256"
        }
      ],
      "stateMutability": "view",
      "type": "function"
    },
    {
      "inputs": [],
      "name": "resetAllScores",
      "outputs": [],
      "stateMutability": "nonpayable",
      "type": "function"
    },
    {
      "inputs": [],
      "name": "scorer",
      "outputs": [
        {
          "internalType": "address",
          "name": "",
          "type": "address"
        }
      ],
      "stateMutability": "view",
      "type": "function"
    },
    {
      "inputs": [
        {
          "internalType": "string",
          "name": "_name",
          "type": "string"
        },
        {
          "internalType": "string",
          "name": "_date",
          "type": "string"
        }
      ],
      "name": "setMatchInfo",
      "outputs": [],
      "stateMutability": "nonpayable",
      "type": "function"
    },
    {
      "inputs": [
        {
          "internalType": "address",
          "name": "_scorer",
          "type": "address"
        }
      ],
      "name": "setScorer",
      "outputs": [],
      "stateMutability": "nonpayable",
      "type": "function"
    },
    {
      "inputs": [
        {
          "internalType": "string",
          "name": "_name",
          "type": "string"
        },
        {
          "internalType": "uint256",
          "name": "_runs",
          "type": "uint256"
        },
        {
          "internalType": "uint256",
          "name": "_wickets",
          "type": "uint256"
        }
      ],
      "name": "updateScore",
      "outputs": [],
      "stateMutability": "nonpayable",
      "type": "function"
    }
  ],
  "bytecode": "0x6080604052348015600f57600080fd5b50336000806101000a81548173ffffffffffffffffffffffffffffffffffffffff021916908373ffffffffffffffffffffffffffffffffffffffff160217905550611cb88061005f6000396000f3fe608060405234801561001057600080fd5b50600436106100f55760003560e01c806385c758f711610097578063e330df7d11610066578063e330df7d14610262578063efa1c4821461027e578063f71d96cb1461029c578063f77e8b83146102ce576100f5565b806385c758f7146101c65780638da5cb5b146101e4578063ad31ff8914610202578063c148162614610232576100f5565b806324d00cff116100d357806324d00cff146101645780633641f34e1461018257806365651f341461019e57806371738f8c146101a8576100f5565b806303191ffc146100fa5780631f11b24f146101165780632011cdae14610146575b600080fd5b610114600480360381019061010f9190611036565b6102ea565b005b610130600480360381019061012b91906111a9565b6103f3565b60405161013d91906112da565b60405180910390f35b61014e61055e565b60405161015b919061130b565b60405180910390f35b61016c6105b7565b6040516101799190611370565b60405180910390f35b61019c600480360381019061019791906113be565b610645565b005b6101a6610872565b005b6101b06109a2565b6040516101bd9190611370565b60405180910390f35b6101ce610a30565b6040516101db919061143c565b60405180910390f35b6101ec610a56565b6040516101f9919061143c565b60405180910390f35b61021c600480360381019061021791906111a9565b610a7a565b6040516102299190611472565b60405180910390f35b61024c600480360381019061024791906111a9565b610ab0565b604051610259919061130b565b60405180910390f35b61027c6004803603810190610277919061148d565b610ade565b005b610286610bc9565b6040516102939190611617565b60405180910390f35b6102b660048036038101906102b19190611639565b610cce565b6040516102c593929190611666565b60405180910390f35b6102e860048036038101906102e391906111a9565b610d90565b005b60008054906101000a900473ffffffffffffffffffffffffffffffffffffffff1673ffffffffffffffffffffffffffffffffffffffff163373ffffffffffffffffffffffffffffffffffffffff1614610378576040517f08c379a000000000000000000000000000000000000000000000000000000000815260040161036f906116f0565b60405180910390fd5b80600160006101000a81548173ffffffffffffffffffffffffffffffffffffffff021916908373ffffffffffffffffffffffffffffffffffffffff1602179055507f38fd852c3f4eb6ac02d75f413a7759e43d5f72a7885bc506ef8f970771f4477f816040516103e8919061143c565b60405180910390a150565b6103fb610fa3565b60068260405161040b919061174c565b908152602001604051809103902060009054906101000a900460ff16610466576040517f08c379a000000000000000000000000000000000000000000000000000000000815260040161045d906117af565b60405180910390fd5b6004600583604051610478919061174c565b90815260200160405180910390205481548110610498576104976117cf565b5b90600052602060002090600302016040518060600160405290816000820180546104c19061182d565b80601f01602080910402602001604051908101604052809291908181526020018280546104ed9061182d565b801561053a5780601f1061050f5761010080835404028352916020019161053a565b820191906000526020600020905b81548152906001019060200180831161051d57829003601f168201915b50505050508152602001600182015481526020016002820154815250509050919050565b600080600090505b6004805490508110156105b35760048181548110610587576105866117cf565b5b906000526020600020906003020160010154826105a4919061188d565b91508080600101915050610566565b5090565b600380546105c49061182d565b80601f01602080910402602001604051908101604052809291908181526020018280546105f09061182d565b801561063d5780601f106106125761010080835404028352916020019161063d565b820191906000526020600020905b81548152906001019060200180831161062057829003601f168201915b505050505081565b60008054906101000a900473ffffffffffffffffffffffffffffffffffffffff1673ffffffffffffffffffffffffffffffffffffffff163373ffffffffffffffffffffffffffffffffffffffff1614806106ec5750600160009054906101000a900473ffffffffffffffffffffffffffffffffffffffff1673ffffffffffffffffffffffffffffffffffffffff163373ffffffffffffffffffffffffffffffffffffffff16145b61072b576040517f08c379a00000000000000000000000000000000000000000000000000000000081526004016107229061190d565b60405180910390fd5b60068360405161073b919061174c565b908152602001604051809103902060009054906101000a900460ff16610796576040517f08c379a000000000000000000000000000000000000000000000000000000000815260040161078d906117af565b60405180910390fd5b60006005846040516107a8919061174c565b908152602001604051809103902054905082600482815481106107ce576107cd6117cf565b5b906000526020600020906003020160010160008282546107ee919061188d565b92505081905550816004828154811061080a576108096117cf565b5b9060005260206000209060030201600201600082825461082a919061188d565b925050819055507fb24b4bb5cd6ef8c0a7b1c47461e5b1a3f0c24d61c871553049353860c002876384848460405161086493929190611666565b60405180910390a150505050565b60008054906101000a900473ffffffffffffffffffffffffffffffffffffffff1673ffffffffffffffffffffffffffffffffffffffff163373ffffffffffffffffffffffffffffffffffffffff1614610900576040517f08c379a00000000000000000000000000000000000000000000000000000000081526004016108f7906116f0565b60405180910390fd5b60005b60048054905081101561097357600060048281548110610926576109256117cf565b5b906000526020600020906003020160010181905550600060048281548110610951576109506117cf565b5b9060005260206000209060030201600201819055508080600101915050610903565b507f3cce92510b2c16a67fe058f06a525a04773fa1a9a0503de4aa5efde8ab21655b60405160405180910390a1565b600280546109af9061182d565b80601f01602080910402602001604051908101604052809291908181526020018280546109db9061182d565b8015610a285780601f106109fd57610100808354040283529160200191610a28565b820191906000526020600020905b815481529060010190602001808311610a0b57829003601f168201915b505050505081565b600160009054906101000a900473ffffffffffffffffffffffffffffffffffffffff1681565b60008054906101000a900473ffffffffffffffffffffffffffffffffffffffff1681565b6006818051602081018201805184825260208301602085012081835280955050505050506000915054906101000a900460ff1681565b6005818051602081018201805184825260208301602085012081835280955050505050506000915090505481565b60008054906101000a900473ffffffffffffffffffffffffffffffffffffffff1673ffffffffffffffffffffffffffffffffffffffff163373ffffffffffffffffffffffffffffffffffffffff1614610b6c576040517f08c379a0000000000000000000000000000000000000000000000000000000008152600401610b63906116f0565b60405180910390fd5b8160029081610b7b9190611ad9565b508060039081610b8b9190611ad9565b507f179d51c263a8c8df6ad0ef4800cd53d6e2bf4f5fd630c449c99c029a08fe9a858282604051610bbd929190611bab565b60405180910390a15050565b60606004805480602002602001604051908101604052809291908181526020016000905b82821015610cc55783829060005260206000209060030201604051806060016040529081600082018054610c209061182d565b80601f0160208091040260200160405190810160405280929190818152602001828054610c4c9061182d565b8015610c995780601f10610c6e57610100808354040283529160200191610c99565b820191906000526020600020905b815481529060010190602001808311610c7c57829003601f168201915b505050505081526020016001820154815260200160028201548152505081526020019060010190610bed565b50505050905090565b60048181548110610cde57600080fd5b9060005260206000209060030201600091509050806000018054610d019061182d565b80601f0160208091040260200160405190810160405280929190818152602001828054610d2d9061182d565b8015610d7a5780601f10610d4f57610100808354040283529160200191610d7a565b820191906000526020600020905b815481529060010190602001808311610d5d57829003601f168201915b5050505050908060010154908060020154905083565b60008054906101000a900473ffffffffffffffffffffffffffffffffffffffff1673ffffffffffffffffffffffffffffffffffffffff163373ffffffffffffffffffffffffffffffffffffffff1614610e1e576040517f08c379a0000000000000000000000000000000000000000000000000000000008152600401610e15906116f0565b60405180910390fd5b600681604051610e2e919061174c565b908152602001604051809103902060009054906101000a900460ff1615610e8a576040517f08c379a0000000000000000000000000000000000000000000000000000000008152600401610e8190611c2e565b60405180910390fd5b6004604051806060016040528083815260200160008152602001600081525090806001815401808255809150506001900390600052602060002090600302016000909190919091506000820151816000019081610ee79190611ad9565b50602082015181600101556040820151816002015550506001600480549050610f109190611c4e565b600582604051610f20919061174c565b9081526020016040518091039020819055506001600682604051610f44919061174c565b908152602001604051809103902060006101000a81548160ff0219169083151502179055507f69909596ede9634a785f75450042681aa4b64c13ddab6e90b72b200e5368bb1c81604051610f989190611370565b60405180910390a150565b60405180606001604052806060815260200160008152602001600081525090565b6000604051905090565b600080fd5b600080fd5b600073ffffffffffffffffffffffffffffffffffffffff82169050919050565b600061100382610fd8565b9050919050565b61101381610ff8565b811461101e57600080fd5b50565b6000813590506110308161100a565b92915050565b60006020828403121561104c5761104b610fce565b5b600061105a84828501611021565b91505092915050565b600080fd5b600080fd5b6000601f19601f8301169050919050565b7f4e487b7100000000000000000000000000000000000000000000000000000000600052604160045260246000fd5b6110b68261106d565b810181811067ffffffffffffffff821117156110d5576110d461107e565b5b80604052505050565b60006110e8610fc4565b90506110f482826110ad565b919050565b600067ffffffffffffffff8211156111145761111361107e565b5b61111d8261106d565b9050602081019050919050565b82818337600083830152505050565b600061114c611147846110f9565b6110de565b90508281526020810184848401111561116857611167611068565b5b61117384828561112a565b509392505050565b600082601f8301126111905761118f611063565b5b81356111a0848260208601611139565b91505092915050565b6000602082840312156111bf576111be610fce565b5b600082013567ffffffffffffffff8111156111dd576111dc610fd3565b5b6111e98482850161117b565b91505092915050565b600081519050919050565b600082825260208201905092915050565b60005b8381101561122c578082015181840152602081019050611211565b60008484015250505050565b6000611243826111f2565b61124d81856111fd565b935061125d81856020860161120e565b6112668161106d565b840191505092915050565b6000819050919050565b61128481611271565b82525050565b600060608301600083015184820360008601526112a78282611238565b91505060208301516112bc602086018261127b565b5060408301516112cf604086018261127b565b508091505092915050565b600060208201905081810360008301526112f4818461128a565b905092915050565b61130581611271565b82525050565b600060208201905061132060008301846112fc565b92915050565b600082825260208201905092915050565b6000611342826111f2565b61134c8185611326565b935061135c81856020860161120e565b6113658161106d565b840191505092915050565b6000602082019050818103600083015261138a8184611337565b905092915050565b61139b81611271565b81146113a657600080fd5b50565b6000813590506113b881611392565b92915050565b6000806000606084860312156113d7576113d6610fce565b5b600084013567ffffffffffffffff8111156113f5576113f4610fd3565b5b6114018682870161117b565b9350506020611412868287016113a9565b9250506040611423868287016113a9565b9150509250925092565b61143681610ff8565b82525050565b6000602082019050611451600083018461142d565b92915050565b60008115159050919050565b61146c81611457565b82525050565b60006020820190506114876000830184611463565b92915050565b600080604083850312156114a4576114a3610fce565b5b600083013567ffffffffffffffff8111156114c2576114c1610fd3565b5b6114ce8582860161117b565b925050602083013567ffffffffffffffff8111156114ef576114ee610fd3565b5b6114fb8582860161117b565b9150509250929050565b600081519050919050565b600082825260208201905092915050565b6000819050602082019050919050565b6000606083016000830151848203600086015261154e8282611238565b9150506020830151611563602086018261127b565b506040830151611576604086018261127b565b508091505092915050565b600061158d8383611531565b905092915050565b6000602082019050919050565b60006115ad82611505565b6115b78185611510565b9350836020820285016115c985611521565b8060005b8581101561160557848403895281516115e68582611581565b94506115f183611595565b925060208a019950506001810190506115cd565b50829750879550505050505092915050565b6000602082019050818103600083015261163181846115a2565b905092915050565b60006020828403121561164f5761164e610fce565b5b600061165d848285016113a9565b91505092915050565b600060608201905081810360008301526116808186611337565b905061168f60208301856112fc565b61169c60408301846112fc565b949350505050565b7f6f6e6c79206f776e657220697320617574686f72697a65640000000000000000600082015250565b60006116da601883611326565b91506116e5826116a4565b602082019050919050565b60006020820190508181036000830152611709816116cd565b9050919050565b600081905092915050565b6000611726826111f2565b6117308185611710565b935061174081856020860161120e565b80840191505092915050565b6000611758828461171b565b915081905092915050565b7f506c6179657220646f6573206e6f742065786973740000000000000000000000600082015250565b6000611799601583611326565b91506117a482611763565b602082019050919050565b600060208201905081810360008301526117c88161178c565b9050919050565b7f4e487b7100000000000000000000000000000000000000000000000000000000600052603260045260246000fd5b7f4e487b7100000000000000000000000000000000000000000000000000000000600052602260045260246000fd5b6000600282049050600182168061184557607f821691505b602082108103611858576118576117fe565b5b50919050565b7f4e487b7100000000000000000000000000000000000000000000000000000000600052601160045260246000fd5b600061189882611271565b91506118a383611271565b92508282019050808211156118bb576118ba61185e565b5b92915050565b7f4e6f7420617574686f72697a6564000000000000000000000000000000000000600082015250565b60006118f7600e83611326565b9150611902826118c1565b602082019050919050565b60006020820190508181036000830152611926816118ea565b9050919050565b60008190508160005260206000209050919050565b60006020601f8301049050919050565b600082821b905092915050565b60006008830261198f7fffffffffffffffffffffffffffffffffffffffffffffffffffffffffffffffff82611952565b6119998683611952565b95508019841693508086168417925050509392505050565b6000819050919050565b60006119d66119d16119cc84611271565b6119b1565b611271565b9050919050565b6000819050919050565b6119f0836119bb565b611a046119fc826119dd565b84845461195f565b825550505050565b600090565b611a19611a0c565b611a248184846119e7565b505050565b5b81811015611a4857611a3d600082611a11565b600181019050611a2a565b5050565b601f821115611a8d57611a5e8161192d565b611a6784611942565b81016020851015611a76578190505b611a8a611a8285611942565b830182611a29565b50505b505050565b600082821c905092915050565b6000611ab060001984600802611a92565b1980831691505092915050565b6000611ac98383611a9f565b9150826002028217905092915050565b611ae2826111f2565b67ffffffffffffffff811115611afb57611afa61107e565b5b611b05825461182d565b611b10828285611a4c565b600060209050601f831160018114611b435760008415611b31578287015190505b611b3b8582611abd565b865550611ba3565b601f198416611b518661192d565b60005b82811015611b7957848901518255600182019150602085019450602081019050611b54565b86831015611b965784890151611b92601f891682611a9f565b8355505b6001600288020188555050505b505050505050565b60006040820190508181036000830152611bc58185611337565b90508181036020830152611bd98184611337565b90509392505050565b7f506c6179657220616c7265616479206578697374730000000000000000000000600082015250565b6000611c18601583611326565b9150611c2382611be2565b602082019050919050565b60006020820190508181036000830152611c4781611c0b565b9050919050565b6000611c5982611271565b9150611c6483611271565b9250828203905081811115611c7c57611c7b61185e565b5b9291505056fea2646970667358221220df58a5675aa67b4a57393befe452530179a494aa3105748e597d1feed5b1290f64736f6c634300081c0033",
  "linkReferences": {},
  "deployedLinkReferences": {}
}